:020000040800F2
:1000000000000220910B0008C1080008C908000880
:10001000DD080008F10800080509000800000000DC
:1000200000000000000000000000000019090008A6
:1000300027090008000000003509000843090008EE
:10004000E10B0008E10B0008E10B0008E10B0008E0
:10005000E10B0008E10B0008E10B0008E10B0008D0
:10006000E10B0008E10B0008E10B0008E10B0008C0
:10007000E10B0008E10B0008E10B0008E10B0008B0
:10008000E10B0008E10B0008E10B00080000000094
:10009000000000000000000000000000E10B00086C
:1000A000E10B0008E10B0008E10B0008E10B000880
:1000B000E10B0008E10B0008E10B0008E10B000870
:1000C000E10B0008E10B0008E10B0008E10B000860
:1000D000E10B0008E10B0008E10B00080000000044
:1000E000E10B0008E10B0008E10B00080000000034
:1000F000000000000000000000000000E10B00080C
:1001000000000000E10B0008E10B0008E10B000813
:1001100000000000000000000000000000000000DF
:10012000E10B0008E10B0008E10B0008E10B0008FF
:10013000E10B0008000000000000000000000000CB
:10014000000000000000000000000000510900084D
:10015000E10B0008E10B0008E10B0008E10B0008CF
:10016000E10B0008E10B00080000000000000000A7
:10017000000000000000000000000000000000007F
:1001800000000000E10B000800000000000000007B
:08019000E10B0008E10B00087F
:1001A00010B5054C237833B9044B13B10448AFF3B1
:1001B00000800123237010BD5009002000000000C2
:1001C0008499010808B5034B1BB103490348AFF3F9
:1001D000008008BD00000000540900208499010837
:1001E000034613F8012B002AFBD1181A0138704777
:1001F00001F0FF01102A2BDB10F0070F08D010F8D8
:10020000013B013A8B422DD010F0070F42B3F6D1DB
:10021000F0B441EA012141EA014122F007047FF0F4
:1002200000070023F0E80256083C85EA010586EA4B
:10023000010685FA47F5A3FA87F586FA47F6A5FA87
:1002400087F68EB9EED1F0BC01F0FF0102F0070293
:1002500032B110F8013B013A83EA010313B1F8D13E
:100260000020704701387047002D06BF354603381F
:10027000073815F0010F07D1013015F4807F02BF58
:10028000013015F4C03F0130F0BC0138704700BFA9
:1002900053B94AB9002908BF00281CBF4FF0FF31ED
:1002A0004FF0FF3000F088B9ADF1080C6DE904CED5
:1002B00000F006F8DDF804E0DDE9022304B0704741
:1002C0002DE9F047089D8E4604468846002B4AD10A
:1002D0008A42174662D9B2FA82F64EB1C6F12003BD
:1002E00001FA06F820FA03F3B74043EA0808B440DD
:1002F0004FEA174E1FFA87FCB8FBFEF1230C0EFBEA
:10030000118843EA084301FB0CF29A4209D9FB1811
:1003100001F1FF3080F0EA809A4240F2E780023932
:100320003B449A1AA3B2B2FBFEF00EFB102243EA42
:10033000024300FB0CFC9C4509D9FB1800F1FF327D
:1003400080F0D6809C4540F2D3803B44023840EA9E
:100350000140A3EB0C0300211DB1F3400022C5E9CD
:100360000032BDE8F0878B4205D90DB1C5E9000127
:1003700000210846F5E7B3FA83F1002946D1734519
:1003800002D3824200F20581841A6EEB030201203F
:100390009046002DE5D0C5E90048E2E7002A00F0CC
:1003A0009080B2FA82F6002E40F0A4808A1A030CE4
:1003B0004FEA174E80B2BCB20121B2FBFEFC0EFB2D
:1003C0001C2243EA024304FB0CF29A4207D9FB18B1
:1003D0000CF1FF3802D29A4200F2E080C4469B1A28
:1003E000B3FBFEF20EFB123340EA034302FB04F4BC
:1003F0009C4207D9FB1802F1FF3002D29C4200F266
:10040000CA8002461B1B42EA0C40A5E7C1F1200648
:100410008B4022FA06F71F430EFA01F420FA06F386
:100420002EFA06FE4FEA1749234300FA01F81FFA95
:1004300087FCBEFBF9F01C0C09FB10EE44EA0E44ED
:1004400000FB0CFEA64502FA01F209D93C1900F1A5
:10045000FF3A80F09C80A64540F2998002383C44E7
:10046000A4EB0E041FFA83FEB4FBF9F309FB13445B
:100470004EEA044403FB0CFCA44508D93C1903F1E3
:10048000FF3E80F08280A4457FD9023B3C4443EA92
:100490000040A4EB0C04A0FB02EC64457346E1466B
:1004A00062D35FD05DB1B8EB030264EB090404FAD8
:1004B00006F622FA01F31E43CC40C5E90064002190
:1004C0004FE7B1FBF2FC010C41EA0E4180B240EA79
:1004D00001423B4638463C46B846BE462026B1FB64
:1004E000F7F1A2EB080241EA0C4166E7014618E782
:1004F00010462CE7C6F120022EFA02F3B740B140B5
:1005000020FA02F24FEA174E0A43B3FBFEF8BCB2E0
:100510000EFB1833110C41EA034108FB04F9B0400B
:1005200089454FEA104380B23ED9791808F1FF3C63
:1005300001D289451FD8A1EB0901B1FBFEF909FBE6
:1005400004F80EFB191192B242EA0142424529D247
:10055000BA1809F1FF31C4D24245C2D2A9F1020151
:100560003A44BEE7F0459DD2BEEB02036CEB070CAC
:100570000138E14696E7A7EB09094944A8F1020CC6
:10058000B1FBFEF909FB04F8DBE773467FE7504651
:1005900066E70846FDE63B44023A33E7ACF1020C5D
:1005A0003B441CE749469CE7A1EB0901C446B1FB6B
:1005B000FEF909FB04F8C4E7704700BF80B5D6B068
:1005C00000AF00F00FFB4F4B5B6FC7F854314D4B42
:1005D0005B6F4C4A43F08073536700F0B3F800F050
:1005E00019F917F089FF00F03DFA41F2883000F068
:1005F0006BFBD7F8543103F08053002B03D04248F3
:1006000000F074FA34E0D7F8543103F08043002B43
:1006100003D03E4800F06AFA2AE0D7F8543103F0DC
:100620000053002B03D03A4800F060FA20E0D7F8DE
:10063000543103F08063002B03D0364800F056FAA3
:1006400016E0D7F8543103F00073002B03D0324882
:1006500000F04CFA0CE0D7F8543103F00063002BA3
:1006600003D02E4800F042FA02E02D4800F03EFA96
:100670004FF47A7000F028FB2A4800F037FA4FF464
:100680007A7000F021FB284800F030FA4FF47A70BD
:1006900000F01AFB254B1B6807F58A70244A40219D
:1006A00018F026FD07F58A73184600F01FFA1F4B55
:1006B0001B6819461F4804F0D9FA4FF47A7000F00D
:1006C00003FB4FF47A7000F0FFFA1B4800F00EFABB
:1006D0004FF47A7000F0F8FA04F0DCFA174800F0F2
:1006E00005FA4FF47A7000F0EFFA04F02DFA14488E
:1006F00004F070FA124806F02BFA642000F0E4FAD5
:1007000000BFF2E700380240B0990108C49901081F
:10071000DC990108FC990108089A01081C9A010853
:100720002C9A0108449A0108489A01084C1C0208B6
:100730004C9A01084C9C01085C9A0108609A0108D7
:100740006C09002080B594B000AF07F1200330227F
:100750000021184618F002FD07F10C0300221A6070
:100760005A609A60DA601A610023BB60274B1B6CE9
:10077000264A43F080531364244B1B6C03F08053D0
:10078000BB60BB6800237B60214B1B68204A43F49D
:10079000404313601E4B1B6803F440437B607B683F
:1007A00001233B624FF480337B620223BB634FF42F
:1007B0008003FB630F233B6490237B640423BB64AF
:1007C0000523FB6407F12003184601F089FF034667
:1007D000002B01D000F046F80F23FB6002233B61A1
:1007E00000237B614FF48053BB610023FB6107F161
:1007F0000C030121184602F0EBF90346002B01D04F
:1008000000F030F800BF5037BD4680BD00380240D0
:100810000070004080B483B000AF00237B60104BB9
:100820001B6B0F4A43F0800313630D4B1B6B03F0EC
:1008300080037B607B6800233B60094B1B6B084A8D
:1008400043F001031363064B1B6B03F001033B6092
:100850003B6800BF0C37BD465DF8047B704700BFA6
:100860000038024080B400AF72B600BF00BFFDE7A1
:1008700080B483B000AF00237B60104B5B6C0F4AE9
:1008800043F4804353640D4B5B6C03F480437B6003
:100890007B6800233B60094B1B6C084A43F0805384
:1008A0001364064B1B6C03F080533B603B6800BF36
:1008B0000C37BD465DF8047B704700BF003802402E
:1008C00080B400AF00BFFDE780B500AF024800F084
:1008D0000DF900BFFDE700BF649A010880B500AFC5
:1008E000024800F003F900BFFDE700BF709A01085D
:1008F00080B500AF024800F0F9F800BFFDE700BF87
:100900007C9A010880B500AF024800F0EFF800BF04
:10091000FDE700BF889A010880B400AF00BFBD4664
:100920005DF8047B704780B400AF00BFBD465DF842
:10093000047B704780B400AF00BFBD465DF8047B08
:10094000704780B500AF00F09FF900BF80BD000088
:1009500080B500AF024800F0B5FD00BF80BD00BF0C
:100960004CD6012080B400AF01231846BD465DF887
:10097000047B704780B582B000AF7860396018F0B2
:1009800049FC034616221A604FF0FF331846083719
:10099000BD4680BD80B582B000AF78604FF0FF31BA
:1009A0007868FFF7E7FF00BFFDE7000080B586B07D
:1009B00000AF7860144A154BD31A7B617B693B61A9
:1009C000134B1B68002B02D1114B124A1A60104BBB
:1009D0001A687B6813443A699A4207D218F01AFCE5
:1009E00003460C221A604FF0FF3309E0084B1B68E6
:1009F000FB60074B1A687B681344054A1360FB6869
:100A000018461837BD4680BD0000022000040000D3
:100A10006C630020A0DE012080B400AF064BD3F849
:100A20008830054A43F47003C2F8883000BFBD46E1
:100A30005DF8047B704700BF00ED00E080B483B038
:100A400000AF0346FB80FB880133FB80FB88FF2B54
:100A500001D90023FB80FB8818460C37BD465DF8A2
:100A6000047B704780B400AF064B00221A80064B0F
:100A700000221A80054B01221A7000BFBD465DF8A6
:100A8000047B70477064002072640020746400204E
:100A900080B584B000AF78600B467B807B68002B0C
:100AA00002D07B88002B01D1012318E00E4B1B786C
:100AB000DBB2002B01D1032311E07B881946786853
:100AC00017F0DEFD0346FB73FB7B002B01D10023F7
:100AD00005E0FB7B012B01D1022300E00123184636
:100AE0001037BD4680BD00BF7464002080B584B05F
:100AF00000AF78607B68002B01D101230AE07868A1
:100B0000FFF76EFB0346FB81FB8919467868FFF708
:100B1000BFFF034618461037BD4680BD80B584B080
:100B200000AF786039607B68002B24D00023FB6025
:100B30001CE0144B1B889BB21846FFF77FFF03464F
:100B40007B81114B1B889BB27A899A4215D07A68B7
:100B5000FB6813440B4A128892B219780B4B9954D4
:100B6000084A7B891380FB680133FB60FA683B68A5
:100B70009A42DED302E000BF00E000BF1037BD465E
:100B800080BD00BF7064002072640020706300208C
:100B9000DFF834D0FFF740FF0C480D490D4A002321
:100BA00002E0D458C4500433C4188C42F9D30A4A22
:100BB0000A4C002301E013600432A242FBD318F078
:100BC0002FFBFFF7FBFC7047000002200000002015
:100BD0004C090020281F0208500900209CDE01203B
:100BE000FEE7000080B500AF0E4B1B680D4A43F4D2
:100BF000007313600B4B1B680A4A43F48063136055
:100C0000084B1B68074A43F480731360032000F00D
:100C10004FF90F2000F008F8FFF72AFE00231846CE
:100C200080BD00BF003C024080B582B000AF78605C
:100C3000124B1A68124B1B7819464FF47A73B3FBA8
:100C4000F1F3B2FBF3F3184600F067F90346002B0B
:100C500001D001230EE07B680F2B0AD800227968AF
:100C60004FF0FF3000F02FF9064A7B681360002335
:100C700000E0012318460837BD4680BD0000002073
:100C8000080000200400002080B400AF064B1B7851
:100C90001A46064B1B681344044A136000BFBD4646
:100CA0005DF8047B704700BF0800002078640020D6
:100CB00080B400AF034B1B681846BD465DF8047B4B
:100CC000704700BF7864002080B584B000AF7860C2
:100CD000FFF7EEFFB8607B68FB60FB68B3F1FF3F96
:100CE00005D00A4B1B781A46FB681344FB6000BF13
:100CF000FFF7DEFF0246BB68D31AFA689A42F7D8BC
:100D000000BF00BF1037BD4680BD00BF08000020F7
:100D100080B485B000AF78607B6803F00703FB60A8
:100D20000C4BDB68BB60BA684FF6FF031340BB6037
:100D3000FB681A02BB68134343F0BF6343F40033FC
:100D4000BB60044ABB68D36000BF1437BD465DF882
:100D5000047B704700ED00E080B400AF044BDB681B
:100D60001B0A03F007031846BD465DF8047B704775
:100D700000ED00E080B483B000AF0346FB7197F94B
:100D80000730002B0BDBFB7903F01F02074997F9B3
:100D900007305B09012000FA02F241F8232000BF6E
:100DA0000C37BD465DF8047B704700BF00E100E0F2
:100DB00080B483B000AF03463960FB7197F9073008
:100DC000002B0ADB3B68DAB20C4997F907301201B5
:100DD000D2B20B4483F800230AE03B68DAB2084938
:100DE000FB7903F00F03043B1201D2B20B441A76D5
:100DF00000BF0C37BD465DF8047B704700E100E0A2
:100E000000ED00E080B489B000AFF860B9607A60AE
:100E1000FB6803F00703FB61FB69C3F10703042BC5
:100E200028BF0423BB61FB690433062B02D9FB698D
:100E3000033B00E000237B614FF0FF32BB6902FA05
:100E400003F3DA43BB681A407B699A404FF0FF31E5
:100E50007B6901FA03F3D9437B680B4013431846BF
:100E60002437BD465DF8047B7047000080B582B032
:100E700000AF78607B68013BB3F1807F01D3012331
:100E80000FE00A4A7B68013B53600F214FF0FF30AF
:100E9000FFF78EFF054B00229A60044B07221A6071
:100EA000002318460837BD4680BD00BF10E000E0B3
:100EB00080B582B000AF78607868FFF729FF00BF87
:100EC0000837BD4680BD80B586B000AF0346B96027
:100ED0007A60FB7300237B61FFF73EFF78617A68DD
:100EE000B9687869FFF78EFF024697F90F3011460F
:100EF0001846FFF75DFF00BF1837BD4680BD80B5BF
:100F000082B000AF0346FB7197F907301846FFF730
:100F100031FF00BF0837BD4680BD80B582B000AF4D
:100F200078607868FFF7A2FF034618460837BD4689
:100F300080BD000080B489B000AF786039600023C4
:100F40007B6100233B610023BB610023FB6159E10E
:100F50000122FB6902FA03F37B613B681B687A6933
:100F600013403B613A697B699A4240F048813B6893
:100F70005B6803F00303012B05D03B685B6803F05B
:100F80000303022B30D17B689B68BB61FB695B006C
:100F9000032202FA03F3DB43BA691340BB613B68E7
:100FA000DA68FB695B0002FA03F3BA691343BB61B9
:100FB0007B68BA699A607B685B68BB610122FB69E8
:100FC00002FA03F3DB43BA691340BB613B685B6819
:100FD0001B0903F00102FB6902FA03F3BA69134328
:100FE000BB617B68BA695A603B685B6803F00303C6
:100FF000032B17D07B68DB68BB61FB695B000322B6
:1010000002FA03F3DB43BA691340BB613B689A6899
:10101000FB695B0002FA03F3BA691343BB617B68A7
:10102000BA69DA603B685B6803F00303022B23D1E3
:10103000FB69DA087B68083253F82230BB61FB6930
:1010400003F007039B000F2202FA03F3DB43BA69A4
:101050001340BB613B681A69FB6903F007039B00FF
:1010600002FA03F3BA691343BB61FB69DA087B68D0
:101070000832B96943F822107B681B68BB61FB69C1
:101080005B00032202FA03F3DB43BA691340BB613E
:101090003B685B6803F00302FB695B0002FA03F341
:1010A000BA691343BB617B68BA691A603B685B68C5
:1010B00003F44033002B00F0A2800023FB60574B69
:1010C0005B6C564A43F480435364544B5B6C03F4AB
:1010D0008043FB60FB68524AFB699B08023352F86D
:1010E0002330BB61FB6903F003039B000F2202FA6C
:1010F00003F3DB43BA691340BB617B68494A9342FF
:1011000019D07B68484A934213D07B68474A934280
:101110000DD07B68464A934207D07B68454A93428C
:1011200001D1042308E0072306E0032304E002239F
:1011300002E0012300E00023FA6902F003029200BA
:101140009340BA691343BB613549FB699B0802337D
:10115000BA6941F82320384B9B68BB613B69DB438C
:10116000BA691340BB613B685B6803F48013002BD2
:1011700003D0BA693B691343BB612F4ABB699360D3
:101180002D4BDB68BB613B69DB43BA691340BB6134
:101190003B685B6803F40013002B03D0BA693B691A
:1011A0001343BB61244ABB69D360234B5B68BB61BB
:1011B0003B69DB43BA691340BB613B685B6803F47E
:1011C0000033002B03D0BA693B691343BB611A4A51
:1011D000BB695360184B1B68BB613B69DB43BA6951
:1011E0001340BB613B685B6803F48033002B03D082
:1011F000BA693B691343BB610F4ABB691360FB6962
:101200000133FB61FB690F2B7FF6A2AE00BF00BF6D
:101210002437BD465DF8047B704700BF00380240AC
:101220000038014000000240000402400008024073
:10123000000C024000100240003C014080B586B026
:1012400002AF78607B68002B01D1012301E17B684C
:101250001B68BB607B6893F89534DBB2002B06D12A
:101260007B68002283F89424786817F051FB7B6830
:10127000032283F89524BB68B3F1A04F02D17B68A9
:1012800000229A717B681B68184601F070FF7B682A
:1012900018687B681A7C8DF8002004330ECB01F0AF
:1012A0004FFE0346002B05D07B68022283F895246D
:1012B0000123CEE07B681B680021184601F068FF1F
:1012C0000346002B05D07B68022283F89524012376
:1012D000BFE00023FB734AE0FA7B79681346DB002A
:1012E00013449B000B44153301221A70FA7B796872
:1012F0001346DB0013449B000B441433FA7B1A7033
:10130000FA7BFB7B98B279681346DB0013449B00A1
:101310000B442E3302461A80FA7B79681346DB00B1
:1013200013449B000B44183300221A70FA7B79682F
:101330001346DB0013449B000B441C3300221A604D
:10134000FA7B79681346DB0013449B000B4420337F
:1013500000221A60FA7B79681346DB0013449B0075
:101360000B44243300221A60FB7B0133FB737B6840
:101370001B79FA7B9A42AFD30023FB7344E0FA7BDC
:1013800079681346DB0013449B000B4403F255239A
:1013900000221A70FA7B79681346DB0013449B0025
:1013A0000B4403F51573FA7B1A70FA7B79681346C0
:1013B000DB0013449B000B4403F5167300221A70E4
:1013C000FA7B79681346DB0013449B000B4403F55A
:1013D000177300221A60FA7B79681346DB00134406
:1013E0009B000B4403F5187300221A60FA7B79689E
:1013F0001346DB0013449B000B4403F519730022D2
:101400001A60FB7B0133FB737B681B79FA7B9A4282
:10141000B5D37B6818687B681A7C8DF8002004338C
:101420000ECB01F001FF0346002B05D07B680222A2
:1014300083F8952401230CE07B6800225A747B68B2
:10144000012283F895247B681B68184602F04BFF45
:10145000002318461037BD4680BD80B584B000AF6C
:1014600078607B681B68FB607B6893F89434012B81
:1014700001D1022322E07B68012283F89424FB68D7
:10148000DB6803F04003002B09D07B685B7B012BFA
:1014900005D1FB689B6B43F48032FB689A637B68E1
:1014A0001B68184601F052FE7B681B68184602F064
:1014B000F9FE7B68002283F8942400231846103735
:1014C000BD4680BD90B58DB000AF78607B681B686D
:1014D0003B623B6AFB617B681B68184602F0B7FF02
:1014E0000346002B40F08C847B681B68184602F092
:1014F0001BFF0346002B00F08284FB6903F50063A9
:101500009B681B0AC3F30D027B68C3F8D4247B6875
:101510001B68184602F008FF034603F00203022B83
:1015200007D17B681B685A697B681B6802F002025E
:101530005A617B681B68184602F0F6FE034603F00A
:101540001003102B61D17B681B689A697B681B684C
:1015500022F010029A613B6A1B6ABB61BB6903F00F
:101560000F021346DB0013449B0003F514737A68E3
:10157000134404337B61BB6903F4F013B3F5802F8C
:1015800024D1BA6947F6F0731340002B35D07B693C
:10159000D968BB691B099BB2C3F30A039BB21A4605
:1015A000386A02F02DFD7B69DA68BB691B09C3F359
:1015B0000A031A447B69DA607B695A69BB691B09B3
:1015C000C3F30A031A447B695A6116E0BB6903F44A
:1015D000F013B3F5402F10D17B6803F29C4308222F
:1015E0001946386A02F00CFD7B695A69BB691B0910
:1015F000C3F30A031A447B695A617B681B689A69C2
:101600007B681B6842F010029A617B681B68184671
:1016100002F08AFE034603F40023B3F5002F40F0E6
:10162000A78000237B627B681B68184602F08FFE50
:10163000B86299E0BB6A03F00103002B00F08E80D2
:101640007B681B687A6AD2B21146184602F0B3FE74
:1016500038613B6903F00103002B0CD07B6A5A010F
:10166000FB69134403F530631A4601239360796ADA
:10167000786800F0A3FE3B6903F00803002B0CD050
:101680007B6A5A01FB69134403F530631A46082349
:101690009360796A786800F079FF3B6903F0100382
:1016A000002B08D07B6A5A01FB69134403F53063B1
:1016B0001A46102393603B6903F00203002B30D0DD
:1016C0003B6A5B6903F08003802B09D1FB6903F55A
:1016D00000635B68FA6902F5006243F4806353605B
:1016E0007A6A1346DB0013449B0003F514737A688F
:1016F000134404337B617B69DB78012B08D17B6960
:101700000022DA707B6ADBB21946786817F0FCF9C0
:101710007B6A5A01FB69134403F530631A460223BE
:1017200093603B6903F02003002B08D07B6A5A01C9
:10173000FB69134403F530631A46202393603B6929
:1017400003F40053002B09D07B6A5A01FB69134450
:1017500003F530631A464FF4005393607B6A0133FC
:101760007B62BB6A5B08BB62BB6A002B7FF462AF23
:101770007B681B68184602F0D7FD034603F48023FC
:10178000B3F5802F40F0DB807B681B68184602F0C1
:10179000F8FDB86200237B62CDE0BB6A03F0010371
:1017A000002B00F0C2807B681B687A6AD2B21146B7
:1017B000184602F01EFE38613B6903F00103002B5E
:1017C00057D07B6A03F00F03012202FA03F3FB6098
:1017D000FB6903F500635A6BFB68DB43F96901F5AC
:1017E000006113404B637B6A5A01FB69134403F5A4
:1017F00010631A46012393607B689B79012B32D1D9
:1018000079687A6A1346DB0013449B000B4420334B
:10181000196878687A6A1346DB0013449B00034416
:101820001C331B68194478687A6A1346DB0013443A
:101830009B000344203319607B6A002B13D1796825
:101840007A6A1346DB0013449B000B4424331B6865
:10185000002B08D17B6818687B6803F29C431A460A
:10186000012102F025FE7B6ADBB21946786817F089
:10187000D0F83B6903F00803002B08D07B6A5A01BB
:10188000FB69134403F510631A46082393603B6910
:1018900003F01003002B08D07B6A5A01FB69134444
:1018A00003F510631A46102393603B6903F040036D
:1018B000002B08D07B6A5A01FB69134403F51063BF
:1018C0001A46402393603B6903F00203002B23D0A8
:1018D000796A386A01F00CFE7A6A1346DB00134419
:1018E0009B0010337A68134404337B617B69DB7897
:1018F000012B08D17B690022DA707B6ADBB21946C2
:10190000786817F013F97B6A5A01FB69134403F5F1
:1019100010631A46022393603B6903F08003002B97
:1019200003D0796A786800F0BDFC7B6A01337B6282
:10193000BB6A5B08BB62BB6A002B7FF42EAF7B687F
:101940001B68184602F0F0FC034603F00043B3F1B5
:10195000004F22D1FB6903F500635B68FA6902F569
:10196000006223F0010353607B6893F8CC34012BB1
:1019700008D17B68002283F8CC240021786800F02D
:10198000A3FE02E0786817F0B1F87B681B685A691B
:101990007B681B6802F000425A617B681B6818462E
:1019A00002F0C2FC034603F40063B3F5006F12D1EA
:1019B000FB6903F500639B6803F00103012B02D16F
:1019C000786817F06DF87B681B685A697B681B683C
:1019D00002F400625A617B681B68184602F0A4FC9E
:1019E000034603F48053B3F5805F40F0B780FB6992
:1019F00003F500635B68FA6902F5006223F00103F6
:101A000053607B681B681021184601F071FD0023AC
:101A1000FB6246E0FB6A5A01FB69134403F510635D
:101A20001A464FF67F339360FB6A5A01FB691344F1
:101A300003F510631B68FA6A5101FA690A4402F55A
:101A4000106223F400131360FB6A5A01FB6913440C
:101A500003F530631A464FF67F339360FB6A5A01F1
:101A6000FB69134403F530631B68FA6A5101FA6994
:101A70000A4402F5306223F400131360FB6A5A0132
:101A8000FB69134403F530631B68FA6A5101FA6974
:101A90000A4402F5306243F000631360FB6A0133CD
:101AA000FB627B681B791A46FB6A9342B2D3FB69DF
:101AB00003F50063DB69FA6902F5006243F0011384
:101AC000D3617B68DB7B002B16D0FB6903F50063D9
:101AD000D3F88430FA6902F5006243F00B03C2F8D0
:101AE0008430FB6903F500635B6CFA6902F5006200
:101AF00043F00B03536415E0FB6903F500635B6976
:101B0000FA6902F5006243F4005343F02B0353617A
:101B1000FB6903F500631B69FA6902F5006243F093
:101B20000B031361FB6903F500631B68FA6902F597
:101B3000006223F4FE6313607B6818687B68997900
:101B40007B6803F29C431A4602F0B2FC7B681B6878
:101B50005A697B681B6802F480525A617B681B6873
:101B6000184602F0E1FB034603F40053B3F5005FAF
:101B700023D17B681B68184602F077FC7B681B68E2
:101B8000184601F02EFD03461A467B68DA717B6821
:101B90001C6801F0C9F901467B68DB791A462046CA
:101BA00001F032FA786816F05CFF7B681B685A69AE
:101BB0007B681B6802F400525A617B681B681846F8
:101BC00002F0B2FB034603F00803082B0AD1786841
:101BD00016F039FF7B681B685A697B681B6802F046
:101BE00008025A617B681B68184602F09DFB034699
:101BF00003F08003802B23D13B6A9B6923F0800292
:101C00003B6A9A6101237B6214E079687A6A134621
:101C1000DB0013449B000B4403F257231B78012B7A
:101C200005D17B6ADBB21946786800F00AFB7B6A53
:101C300001337B627B681B791A467B6A9342E4D34B
:101C40007B681B68184602F06FFB034603F48013A1
:101C5000B3F5801F3CD101237B622BE07B6A5A01E4
:101C6000FB69134403F510631B68BB6179687A6AEA
:101C70001346DB0013449B000B4418331B78012BE5
:101C800015D1BB69002B12DA79687A6A1346DB003A
:101C900013449B000B44173301221A707B6ADBB29A
:101CA00063F07F03DBB21946786800F0CAFA7B6AFA
:101CB00001337B627B681B791A467B6A9342CDD3E2
:101CC0007B681B685A697B681B6802F480125A6142
:101CD0007B681B68184602F027FB034603F40013D9
:101CE000B3F5001F56D101237B6245E07B6A5A01A0
:101CF000FB69134403F530631B68BB6179687A6A3A
:101D00001346DB0013449B000B4403F516731B784A
:101D1000012B2ED1BB69002B2BDABB691A0C7B6817
:101D2000D3F8D434534003F00103002B21D1796858
:101D30007A6A1346DB0013449B000B4403F25723DB
:101D400001221A703B6A9B6943F080023B6A9A61E8
:101D50003B6A5B6903F08003002B0AD1FB6903F542
:101D600000635B68FA6902F5006243F40073536034
:101D700008E07B6A01337B627B681B791A467B6AC9
:101D80009342B3D37B681B685A697B681B6802F473
:101D900000125A617B681B68184602F0C5FA0346B8
:101DA00003F08043B3F1804F0AD1786816F0D0FE7B
:101DB0007B681B685A697B681B6802F080425A6125
:101DC0007B681B68184602F0AFFA034603F0040371
:101DD000042B15D17B681B685B68BB61BB6903F092
:101DE0000403002B02D0786816F0C0FE7B681B68E5
:101DF00059687B681B68BA690A435A6000E000BFF3
:101E00003437BD4690BD80B582B000AF78600B46D8
:101E1000FB707B6893F89434012B01D1022312E00C
:101E20007B68012283F894247B68FA785A747B6873
:101E30001B68FA781146184602F00EFA7B680022F9
:101E400083F89424002318460837BD4680BD80B52A
:101E500084B000AF7860084611461A460346FB700E
:101E60000B463B801346BB700023FB7297F903308F
:101E7000002B0FDAFB7803F00F021346DB0013444C
:101E80009B0010337A6813440433FB60FB68012223
:101E90005A700FE0FB7803F00F021346DB00134487
:101EA0009B0003F514737A6813440433FB60FB68EA
:101EB00000225A70FB7803F00F03DAB2FB681A7045
:101EC0003B88C3F30A02FB689A60FB68BA781A7110
:101ED000FB685B78002B04D0FB681B781A46FB6814
:101EE0005A83BB78022B02D1FB6800225A717B68AF
:101EF00093F89434012B01D102230EE07B68012278
:101F000083F894247B681B68F968184601F08EFBFF
:101F10007B68002283F89424FB7A18461037BD466C
:101F200080BD80B584B000AF78600B46FB7097F938
:101F30000330002B0FDAFB7803F00F021346DB00AF
:101F400013449B0010337A6813440433FB60FB682E
:101F500001225A700FE0FB7803F00F021346DB00FA
:101F600013449B0003F514737A6813440433FB6035
:101F7000FB6800225A70FB7803F00F03DAB2FB68AB
:101F80001A707B6893F89434012B01D102230EE080
:101F90007B68012283F894247B681B68F9681846E3
:101FA00001F0CCFB7B68002283F8942400231846C0
:101FB0001037BD4680BD80B586B000AFF8607A604E
:101FC0003B600B46FB72FB7A03F00F021346DB000B
:101FD00013449B0003F51473FA68134404337B61C4
:101FE0007B697A68DA607B693A681A617B690022EA
:101FF0005A617B6900225A70FB7A03F00F03DAB250
:102000007B691A70FB689B79012B02D17A687B6926
:10201000DA61FB681868FB689B791A46796901F0F8
:1020200069FC002318461837BD4680BD80B483B0D4
:1020300000AF78600B46FB70FB7803F00F02796805
:102040001346DB0013449B000B4403F51A731B6813
:1020500018460C37BD465DF8047B704780B586B0E6
:1020600000AFF8607A603B600B46FB72FB7A03F0CE
:102070000F021346DB0013449B001033FA6813442D
:1020800004337B617B697A68DA607B693A681A613C
:102090007B6900225A617B6901225A70FB7A03F046
:1020A0000F03DAB27B691A70FB689B79012B02D1AE
:1020B0007A687B69DA61FB681868FB689B791A4665
:1020C000796901F017FC002318461837BD4680BD1A
:1020D00080B584B000AF78600B46FB70FB7803F0EE
:1020E0000F037A681279934201D901234FE097F9DF
:1020F0000330002B0FDAFB7803F00F021346DB00EE
:1021000013449B0010337A6813440433FB60FB686C
:1021100001225A700DE0FA781346DB0013449B004D
:1021200003F514737A6813440433FB60FB680022E0
:102130005A70FB6801229A70FB7803F00F03DAB241
:10214000FB681A707B6893F89434012B01D1022349
:102150001DE07B68012283F894247B681B68F96882
:10216000184601F0A5FFFB7803F00F03002B09D1FF
:102170007B6818687B6899797B6803F29C431A46F0
:1021800002F096F97B68002283F894240023184615
:102190001037BD4680BD80B584B000AF78600B4677
:1021A000FB70FB7803F00F037A681279934201D930
:1021B000012342E097F90330002B0FDAFB7803F09C
:1021C0000F021346DB0013449B0010337A6813445C
:1021D0000433FB60FB6801225A700FE0FB7803F0C8
:1021E0000F021346DB0013449B0003F514737A6857
:1021F00013440433FB60FB6800225A70FB68002222
:102200009A70FB7803F00F03DAB2FB681A707B68F0
:1022100093F89434012B01D102230EE07B68012254
:1022200083F894247B681B68F968184601F0AEFFB8
:102230007B68002283F89424002318461037BD469B
:1022400080BD80B584B000AF78600B46FB7097F915
:102250000330002B0CDAFB7803F00F021346DB008F
:1022600013449B0010337A6813440433FB600CE082
:10227000FB7803F00F021346DB0013449B0003F5C9
:1022800014737A6813440433FB607B681B68F96835
:10229000184601F0CDFD0346FB72FB7A1846103755
:1022A000BD4680BD80B58AB002AF786039607B687A
:1022B0001B687B617B693B613A681346DB00134412
:1022C0009B0010337A6813440433FB60FB685A693F
:1022D000FB681B699A4201D901236BE0FB681A690C
:1022E000FB685B69D31AFB61FB689B68FA699A42D9
:1022F00002D9FB689B68FB61FB6903339B08BB61E8
:102300002AE0FB681A69FB685B69D31AFB61FB680A
:102310009B68FA699A4202D9FB689B68FB61FB697A
:1023200003339B08BB61FB68D9683B68DAB2FB6981
:1023300098B27B689B7900930346786901F022FE8E
:10234000FB68DA68FB691A44FB68DA60FB685A6963
:10235000FB691A44FB685A613B685A013B691344A4
:1023600003F510639B699BB2BA699A4209D8FB686E
:102370005A69FB681B699A4203D2FB681B69002BF0
:10238000BFD1FB681A69FB685B699A4211D83B6848
:1023900003F00F03012202FA03F3BB603B6903F56C
:1023A00000635A6BBB68DB43396901F50061134078
:1023B0004B63002318462037BD4680BD80B588B0EA
:1023C00000AF786039607B681B68FB61FB69BB61AB
:1023D000FB693C3304331B687B613B685A01BB6972
:1023E000134403F530639B683B617B689B79012B49
:1023F0007BD13B6903F00803002B15D07B69614A50
:10240000934240F2B9803B6903F40043002B00F093
:10241000B3803B685A01BB69134403F530631A4625
:102420004FF400439360A7E03B6903F02003002BC7
:1024300009D03B685A01BB69134403F530631A465F
:102440002023936098E03B6903F02803002B40F0C1
:1024500093807B694B4A93420FD93B6903F4004355
:10246000002B0AD03B685A01BB69134403F5306363
:102470001A464FF4004393607EE03A681346DB004F
:1024800013449B0003F514737A6813440433FB6010
:10249000FB681A6A3B685901BB690B4403F530635A
:1024A0001B69C3F31203D21AFB685A613B68002B05
:1024B00014D1FB681B69002B09D17B6818687B6805
:1024C00003F29C431A46012101F0F2FF06E0FB688B
:1024D000DA68FB685B691A44FB68DA603B68DBB268
:1024E0001946786816F07AFA46E07B69264A9342E4
:1024F00024D13B6903F40043002B0AD03B685A0106
:10250000BB69134403F530631A464FF400439360EC
:1025100032E03B6903F02003002B08D03B685A01EE
:10252000BB69134403F530631A46202393603B686C
:10253000DBB21946786816F051FA1DE03B68002BB3
:1025400014D179683A681346DB0013449B000B44AE
:1025500003F519731B68002B08D17B6818687B682A
:1025600003F29C431A46002101F0A2FF3B68DBB254
:102570001946786816F032FA002318462037BD460F
:1025800080BD00BF0A30544F0A31544F80B586B029
:1025900000AF786039607B681B687B617B693B6159
:1025A0007B693C3304331B68FB603B685A013B6921
:1025B000134403F530639B68BB60FB68154A934284
:1025C0000ED9BB6803F40043002B09D03B685A01C5
:1025D0003B69134403F530631A464FF4004393609C
:1025E000786816F0E9F9FB680A4A93420CD97B68CF
:1025F0009B79012B08D17B6818687B6803F29C43A8
:102600001A46012101F054FF002318461837BD4631
:1026100080BD00BF0A30544F80B485B000AF7860F1
:102620000B46FB7013463B807B681B685B6ABB6094
:10263000FB78002B07D13B8819047B681B68BA68BC
:102640000A439A6228E07B681B689B6A1B0CBA6885
:102650001344BB600023FB730DE07B681A68FB7BAF
:1026600040339B0013445B681B0CBA681344BB6087
:10267000FB7B0133FB73FA7BFB78013B9A42ECD383
:102680003B8818047B681968FB78013BBA680243F1
:1026900040339B000B445A60002318461437BD4654
:1026A0005DF8047B704780B483B000AF78600B4660
:1026B0007B807B681B687A885A62002318460C3737
:1026C000BD465DF8047B704780B483B000AF78608E
:1026D0000B46FB7000BF0C37BD465DF8047B7047AE
:1026E00080B586B000AF78607B68002B01D10123F4
:1026F00067E27B681B6803F00103002B75D0884BF1
:102700009B6803F00C03042B0CD0854B9B6803F0F3
:102710000C03082B12D1824B5B6803F48003B3F5E2
:10272000800F0BD17E4B1B6803F40033002B5BD072
:102730007B685B68002B57D1012342E27B685B68B2
:10274000B3F5803F06D1764B1B68754A43F480335E
:1027500013601DE07B685B68B3F5A02F0CD1704B54
:102760001B686F4A43F4802313606D4B1B686C4AEF
:1027700043F4803313600BE0694B1B68684A23F411
:1027800080331360664B1B68654A23F48023136013
:102790007B685B68002B13D0FEF78AFA386108E08B
:1027A000FEF786FA02463B69D31A642B01D903234C
:1027B00007E25B4B1B6803F40033002BF0D014E0FE
:1027C000FEF776FA386108E0FEF772FA02463B69D6
:1027D000D31A642B01D90323F3E1514B1B6803F493
:1027E0000033002BF0D100E000BF7B681B6803F0D2
:1027F0000203002B63D04A4B9B6803F00C03002BB1
:102800000BD0474B9B6803F00C03082B1CD1444BA7
:102810005B6803F48003002B16D1414B1B6803F067
:102820000203002B05D07B68DB68012B01D001235C
:10283000C7E13B4B1B6823F0F8027B681B69DB0098
:10284000374913430B603AE07B68DB68002B20D0EC
:10285000344B01221A60FEF72BFA386108E0FEF7CC
:1028600027FA02463B69D31A022B01D90323A8E1B8
:102870002B4B1B6803F00203002BF0D0284B1B6886
:1028800023F0F8027B681B69DB00254913430B60CA
:1028900015E0244B00221A60FEF70AFA386108E0BE
:1028A000FEF706FA02463B69D31A022B01D903232D
:1028B00087E11B4B1B6803F00203002BF0D17B6800
:1028C0001B6803F00803002B36D07B685B69002B84
:1028D00016D0154B01221A60FEF7EAF9386108E0BC
:1028E000FEF7E6F902463B69D31A022B01D903230E
:1028F00067E10B4B5B6F03F00203002BF0D01BE092
:10290000094B00221A60FEF7D3F938610EE0FEF79A
:10291000CFF902463B69D31A022B07D9032350E1B2
:102920000038024000004742800E4742884B5B6FF0
:1029300003F00203002BEAD17B681B6803F0040359
:10294000002B00F097800023FB75814B1B6C03F07C
:102950008053002B0FD10023BB607D4B1B6C7C4A46
:1029600043F0805313647A4B1B6C03F08053BB60BD
:10297000BB680123FB75774B1B6803F48073002B46
:1029800018D1744B1B68734A43F480731360FEF7CD
:102990008FF9386108E0FEF78BF902463B69D31ADC
:1029A000022B01D903230CE16A4B1B6803F48073EB
:1029B000002BF0D07B689B68012B06D1644B1B6F0A
:1029C000634A43F0010313671CE07B689B68052B97
:1029D0000CD15F4B1B6F5E4A43F0040313675C4BE3
:1029E0001B6F5B4A43F0010313670BE0584B1B6FEF
:1029F000574A23F001031367554B1B6F544A23F0CA
:102A0000040313677B689B68002B15D0FEF750F911
:102A100038610AE0FEF74CF902463B69D31A41F2ED
:102A20008832934201D90323CBE0494B1B6F03F05B
:102A30000203002BEED014E0FEF73AF938610AE009
:102A4000FEF736F902463B69D31A41F288329342C7
:102A500001D90323B5E03E4B1B6F03F00203002BAB
:102A6000EED1FB7D012B05D1394B1B6C384A23F08D
:102A7000805313647B689B69002B00F0A180344B6A
:102A80009B6803F00C03082B5CD07B689B69022BCE
:102A900041D1314B00221A60FEF70AF9386108E093
:102AA000FEF706F902463B69D31A022B01D903232C
:102AB00087E0274B1B6803F00073002BF0D17B6885
:102AC000DA697B681B6A1A437B685B6A9B011A435D
:102AD0007B689B6A5B08013B1B041A437B68DB6ACB
:102AE0001B061B4913434B601B4B01221A60FEF768
:102AF000DFF8386108E0FEF7DBF802463B69D31ADD
:102B0000022B01D903235CE0114B1B6803F0007317
:102B1000002BF0D054E0104B00221A60FEF7C8F8EA
:102B2000386108E0FEF7C4F802463B69D31A022B6D
:102B300001D9032345E0064B1B6803F00073002B0B
:102B4000F0D13DE07B689B69012B07D1012338E080
:102B50000038024000700040600047421B4B5B6839
:102B6000FB607B689B69012B28D0FB6803F4800223
:102B70007B68DB699A4221D1FB6803F03F027B68E6
:102B80001B6A9A421AD1FA6847F6C07313407A68F2
:102B9000526A9201934211D1FB6803F440327B6880
:102BA0009B6A5B08013B1B049A4207D1FB6803F058
:102BB00070627B68DB6A1B069A4201D0012300E049
:102BC000002318461837BD4680BD00BF00380240BC
:102BD00080B584B000AF786039607B68002B01D18C
:102BE0000123CCE0684B1B6803F007033A689A4264
:102BF0000CD9654B3A68D2B21A70634B1B6803F06C
:102C000007033A689A4201D00123B8E07B681B6849
:102C100003F00203002B20D07B681B6803F0040341
:102C2000002B05D0594B9B68584A43F4E0539360FE
:102C30007B681B6803F00803002B05D0534B9B688F
:102C4000524A43F460439360504B9B6823F0F00278
:102C50007B689B684D4913438B607B681B6803F05E
:102C60000103002B44D07B685B68012B07D1474BE5
:102C70001B6803F40033002B19D101237FE07B682C
:102C80005B68022B03D07B685B68032B07D13F4B4B
:102C90001B6803F00073002B09D101236FE03B4B4D
:102CA0001B6803F00203002B01D1012367E0374BBF
:102CB0009B6823F003027B685B68344913438B6095
:102CC000FDF7F6FFF8600AE0FDF7F2FF0246FB6849
:102CD000D31A41F28832934201D903234FE02B4BA0
:102CE0009B6803F00C027B685B689B009A42EBD107
:102CF000254B1B6803F007033A689A420CD2224B1B
:102D00003A68D2B21A70204B1B6803F007033A6886
:102D10009A4201D0012332E07B681B6803F0040370
:102D2000002B08D0194B9B6823F4E0527B68DB68CA
:102D3000164913438B607B681B6803F00803002B64
:102D400009D0124B9B6823F460427B681B69DB004F
:102D50000E4913438B6000F021F802460B4B9B6831
:102D60001B0903F00F030A49CB5C22FA03F3094A5B
:102D70001360094B1B681846FDF756FF00231846E1
:102D80001037BD4680BD00BF003C02400038024005
:102D90003C9C010800000020040000202DE9B04FF9
:102DA00090B000AF00237B630023FB6300233B63F1
:102DB0000023BB63594B9B6803F00C03082B0DD019
:102DC000082B00F2A180002B02D0042B03D09BE043
:102DD000534BBB639BE0534BBB6398E04F4B5B682B
:102DE00003F03F037B634D4B5B6803F48003002BD0
:102DF00028D04A4B5B689B0900223B627A623B6A9F
:102E0000C3F308000021474B03FB01F2002300FB42
:102E100003F31344434AA0FB0212FA620A46BA6261
:102E2000FA6A1344FB627B6B0022BB61FA61D7E94B
:102E30000623D7E90A01FDF72BFA02460B46134693
:102E4000FB6353E0354B5B689B0900223B617A6171
:102E50003B69C3F3080A4FF0000B52465B464FF044
:102E600000004FF00001590141EAD26150010246D1
:102E70000B46B2EB0A0863EB0B094FF000024FF070
:102E800000034FEA891343EA98634FEA8812B2EBD2
:102E9000080463EB09054FF000024FF00003EB005C
:102EA00043EA5473E20014461D4614EB0A033B60E8
:102EB00045EB0B037B604FF000024FF00003D7E9B6
:102EC000004529468B02214643EA915321468A0256
:102ED000104619467B6B0022BB60FA60D7E90223DB
:102EE000FDF7D6F902460B461346FB630B4B5B68B6
:102EF0001B0C03F0030301335B003B63FA6B3B6B7A
:102F0000B2FBF3F3BB6302E0054BBB6300BFBB6BDB
:102F100018464037BD46BDE8B08F00BF00380240BC
:102F20000024F40040787D0180B400AF034B1B689F
:102F30001846BD465DF8047B704700BF00000020C6
:102F400084B080B584B000AF786007F11C0080E8E1
:102F50000E0097F82130012B23D17B689B6B23F463
:102F600080327B689A637B68DB6823F4840323F0F8
:102F700040037A68D3607B68DB6823F440127B6887
:102F8000DA6097F82830012B05D17B68DB6843F4C1
:102F900080127B68DA60786801F0E8FA0346FB7318
:102FA0001BE07B68DB6843F040027B68DA6078688E
:102FB00001F0DCFA0346FB7397F82530002B06D1AD
:102FC0007B689B6B43F480327B689A6305E07B6887
:102FD0009B6B23F480327B689A63BB7F012B0BD100
:102FE0007B689B6843F006027B689A607B689B68FD
:102FF00043F020027B689A60FB7B18461037BD4681
:10300000BDE8804004B0704780B487B000AFF8607E
:10301000B9601346FB71FB79022B65D1BB68414A4D
:10302000934206D9BB68404A934202D20F237B6188
:1030300062E0BB683C4A934206D3BB683B4A93427A
:1030400002D20E237B6157E0BB68384A934206D315
:10305000BB68374A934202D20D237B614CE0BB68C8
:10306000334A934206D3BB68324A934202D80C23B8
:103070007B6141E0BB682F4A934206D9BB682E4A68
:10308000934202D80B237B6136E0BB682A4A934205
:1030900006D9BB68294A934202D80A237B612BE0F8
:1030A000BB68264A934206D9BB68254A934202D29E
:1030B00009237B6120E0BB68214A934206D3BB68A9
:1030C000204A934202D808237B6115E0BB681D4A61
:1030D000934206D9BB681C4A934202D207237B6104
:1030E0000AE006237B6107E0FB79002B02D109236C
:1030F0007B6101E009237B61FB68DB6823F470528C
:10310000FB68DA60FB68DA687B699B0203F4705342
:103110001A43FB68DA60002318461C37BD465DF889
:10312000047B7047BFACD800C0E1E4000024F40089
:10313000807306019F491A01FF2C31013FA44C0105
:1031400000366E011FABA6010048E80180B483B0D1
:1031500000AF78607B689B6843F001027B689A60EF
:10316000002318460C37BD465DF8047B704780B4D9
:1031700083B000AF78607B689B6823F001027B68B6
:103180009A60002318460C37BD465DF8047B7047F3
:1031900080B584B000AF78600B46FB700023FB6005
:1031A0007B68DB6823F0C0427B68DA60FB78012B28
:1031B00015D17B68DB6843F000527B68DA600A2037
:1031C000FDF782FDFB680A33FB60786801F03FF988
:1031D0000346012B1ED0FB68C72BF0D91AE0FB7801
:1031E000002B15D17B68DB6843F080427B68DA6096
:1031F0000A20FDF769FDFB680A33FB60786801F07F
:1032000026F90346002B05D0FB68C72BF0D901E057
:10321000012305E0FB68C82B01D1012300E0002356
:1032200018461037BD4680BD84B080B586B000AF6B
:10323000786007F1240080E80E000023FB757B68AE
:10324000FB6000233B6109E07A683B6940339B00E7
:10325000134400225A603B6901333B613B690E2BEA
:10326000F2D997F82E30002B1CD1FB6803F50063D0
:103270005B68FA6802F5006243F0020353607B6802
:103280009B6B43F400127B689A637B689B6B23F40F
:1032900000227B689A637B689B6B23F480227B68A7
:1032A0009A630BE07B689B6B23F400127B689A6344
:1032B0007B689B6B43F400227B689A63FB6803F591
:1032C00060631A460023136097F82930012B0DD153
:1032D00097F82730002B04D10021786800F068F9B6
:1032E00008E00121786800F063F903E003217868C1
:1032F00000F05EF91021786800F0FAF80346002B20
:1033000001D00123FB75786800F024F90346002BF7
:1033100001D00123FB75FB6803F500631A46002307
:103320001361FB6803F500631A4600235361FB68D1
:1033300003F500631A460023D36100233B6143E099
:103340003B695A01FB68134403F510631B6803F0E3
:103350000043B3F1004F18D13B69002B0AD13B6900
:103360005A01FB68134403F510631A464FF00063DB
:10337000136013E03B695A01FB68134403F51063C3
:103380001A464FF09043136008E03B695A01FB680E
:10339000134403F510631A46002313603B695A0176
:1033A000FB68134403F510631A46002313613B695D
:1033B0005A01FB68134403F510631A464FF67F3336
:1033C00093603B6901333B6197F824301A463B69AF
:1033D0009342B5D300233B6143E03B695A01FB684C
:1033E000134403F530631B6803F00043B3F1004F4F
:1033F00018D13B69002B0AD13B695A01FB68134481
:1034000003F530631A464FF00063136013E03B6925
:103410005A01FB68134403F530631A464FF090439A
:10342000136008E03B695A01FB68134403F53063FD
:103430001A46002313603B695A01FB68134403F5E5
:1034400030631A46002313613B695A01FB68134439
:1034500003F530631A464FF67F3393603B690133BF
:103460003B6197F824301A463B699342B5D3FB6819
:1034700003F500631B69FA6802F5006223F48073A8
:1034800013617B6800229A617B686FF080425A6109
:1034900097F82630002B05D17B689B6943F010021A
:1034A0007B689A617B689A69104B13437A689361D1
:1034B00097F82A30002B05D07B689B6943F00802FF
:1034C0007B689A6197F82E30012B07D17B689B6946
:1034D00043F0804343F004037A689361FB7D184610
:1034E0001837BD46BDE8804004B0704700383C80C6
:1034F00080B485B000AF786039600023FB60FB6862
:103500000133FB60FB68B3F1706F01D903231BE04B
:103510007B681B69002BF2DA0023FB603B689B0190
:1035200043F020027B681A61FB680133FB60FB6893
:10353000B3F1706F01D9032306E07B681B6903F0C8
:103540002003202BF0D0002318461437BD465DF829
:10355000047B704780B485B000AF78600023FB60C7
:10356000FB680133FB60FB68B3F1706F01D9032383
:1035700018E07B681B69002BF2DA0023FB607B6894
:1035800010221A61FB680133FB60FB68B3F1706FB6
:1035900001D9032306E07B681B6903F01003102B9D
:1035A000F0D0002318461437BD465DF8047B704701
:1035B00080B485B000AF78600B46FB707B68FB6021
:1035C000FB6803F500631A68FB78F96801F5006190
:1035D00013430B60002318461437BD465DF8047B87
:1035E000704780B487B000AF78607B683B613B690F
:1035F00003F500639B6803F00603FB60FB68002B88
:1036000002D10023FB750AE0FB68022B02D0FB68A5
:10361000062B02D10223FB7501E00F23FB75FB7D16
:1036200018461C37BD465DF8047B704780B485B0F2
:1036300000AF786039607B68FB603B681B78BB60DB
:103640003B685B78012B3AD1FB6803F50063DA69CC
:103650003B681B7803F00F03012101FA03F39BB2CF
:10366000F96801F500611343CB61BB685A01FB683F
:10367000134403F510631B6803F40043002B55D17A
:10368000BB685A01FB68134403F510631A683B6872
:103690009B68C3F30A013B681B799B041943BB6811
:1036A0009B050B431343BA685101FA680A4402F5BB
:1036B000106243F0805343F40043136036E0FB682C
:1036C00003F50063DA693B681B7803F00F030121FF
:1036D00001FA03F31B04F96801F500611343CB61A0
:1036E000BB685A01FB68134403F530631B6803F49D
:1036F0000043002B1AD1BB685A01FB68134403F541
:1037000030631A683B689B68C3F30A013B681B7906
:103710009B040B431343BA685101FA680A4402F54B
:10372000306243F0805343F4004313600023184693
:103730001437BD465DF8047B7047000080B485B047
:1037400000AF786039607B68FB603B681B78BB60CA
:103750003B685B78012B61D1BB685A01FB6813445D
:1037600003F510631B6803F00043B3F1004F1FD152
:10377000BB685A01FB68134403F510631B68BA6801
:103780005101FA680A4402F5106243F000631360C5
:10379000BB685A01FB68134403F510631B68BA68E1
:1037A0005101FA680A4402F5106243F08043136045
:1037B000FB6803F50063DA6B3B681B7803F00F03CB
:1037C000012101FA03F39BB2DB43F96801F50061C3
:1037D0001340CB63FB6803F50063DA693B681B7831
:1037E00003F00F03012101FA03F39BB2DB43F968F5
:1037F00001F500611340CB61BB685A01FB681344BB
:1038000003F510631A68BB685901FB680B4403F5A4
:1038100010631946354B13400B6060E0BB685A01DA
:10382000FB68134403F530631B6803F00043B3F1F6
:10383000004F1FD1BB685A01FB68134403F5306386
:103840001B68BA685101FA680A4402F5306243F015
:1038500000631360BB685A01FB68134403F53063CF
:103860001B68BA685101FA680A4402F5306243F0F5
:1038700080431360FB6803F50063DA6B3B681B78D9
:1038800003F00F03012101FA03F31B04DB43F96882
:1038900001F500611340CB63FB6803F50063DA694F
:1038A0003B681B7803F00F03012101FA03F31B04AB
:1038B000DB43F96801F500611340CB61BB685A0135
:1038C000FB68134403F530631A68BB685901FB6851
:1038D0000B4403F530631946054B13400B6000237E
:1038E00018461437BD465DF8047B7047007833EC0A
:1038F0000078F3EF80B58AB002AFF860B960134684
:10390000FB71FB68FB61BB681B78BB61BB685B78C4
:10391000012B40F07F81BB681B69002B32D1BB6952
:103920005A01FB69134403F510631B69BA6951011D
:10393000FA690A4402F5106223F0FF5323F4C0131E
:103940001361BB695A01FB69134403F510631B69DA
:10395000BA695101FA690A4402F5106243F400237E
:103960001361BB695A01FB69134403F510631B69BA
:10397000BA695101FA690A4402F51062DB0CDB04F2
:10398000136197E0BB695A01FB69134403F51063A7
:103990001B69BA695101FA690A4402F51062DB0C2D
:1039A000DB041361BB695A01FB69134403F510631F
:1039B0001B69BA695101FA690A4402F5106223F0E1
:1039C000FF5323F4C0131361BB69002B1AD1BB68EA
:1039D0001A69BB689B689A4203D9BB689A68BB683E
:1039E0001A61BB695A01FB69134403F510631B6933
:1039F000BA695101FA690A4402F5106243F40023DE
:103A0000136144E0BB681A69BB689B6813445A1E83
:103A1000BB689B68B2FBF3F3FB82BB695A01FB698D
:103A2000134403F510631A69FB8AD904A44B0B40B5
:103A3000B9694801F969014401F5106113430B614B
:103A4000BB681B79012B22D1BB695A01FB69134466
:103A500003F510631B69BA695101FA690A4402F55A
:103A6000106223F0C0431361BB695A01FB69134420
:103A700003F510631A69FB8A5B0703F0C043B96959
:103A80004801F969014401F5106113430B61BB69F9
:103A90005A01FB69134403F510631A69BB681B697B
:103AA000C3F31203B9694801F969014401F51061D2
:103AB00013430B61FB79012B4BD1BB68DB69002BF6
:103AC00009D0BB695A01FB69134403F510631A4618
:103AD000BB68DB695361BB681B79012B28D1FB698B
:103AE00003F500639B6803F48073002B10D1BB695E
:103AF0005A01FB69134403F510631B68BA6951014D
:103B0000FA690A4402F5106243F0005313600FE0B3
:103B1000BB695A01FB69134403F510631B68BA695A
:103B20005101FA690A4402F5106243F080531360B0
:103B3000BB695A01FB69134403F510631B68BA693A
:103B40005101FA690A4402F5106243F0044313601C
:103B500066E1BB695A01FB69134403F510631B68F6
:103B6000BA695101FA690A4402F5106243F004434C
:103B70001360BB681B79012B15D0BB681B69002B38
:103B800000F04E81FB6903F500635A6BBB681B783C
:103B900003F00F03012101FA03F3F96901F5006154
:103BA00013434B633CE1FB6903F500639B6803F43B
:103BB0008073002B10D1BB695A01FB69134403F5D4
:103BC00010631B68BA695101FA690A4402F5106270
:103BD00043F0005313600FE0BB695A01FB691344C3
:103BE00003F510631B68BA695101FA690A4402F5CA
:103BF000106243F080531360BB68D968BB681A78C1
:103C0000BB681B6998B2FB7900930346F86800F023
:103C1000B9F905E1BB695A01FB69134403F5306347
:103C20001B69BA695101FA690A4402F53062DB0C7A
:103C3000DB041361BB695A01FB69134403F530636C
:103C40001B69BA695101FA690A4402F5306223F02E
:103C5000FF5323F4C0131361BB69002B32D1BB683F
:103C60001B69002B03D0BB689A68BB681A61BB68EC
:103C70009A68BB681A62BB695A01FB69134403F571
:103C800030631A69BB681B6AC3F31203B969480140
:103C9000F969014401F5306113430B61BB695A01B5
:103CA000FB69134403F530631B69BA695101FA6972
:103CB0000A4402F5306243F40023136162E000BF5E
:103CC0000000F81FBB681B69002B23D1BB695A0198
:103CD000FB69134403F530631A69BB689B68C3F33F
:103CE0001203B9694801F969014401F530611343D0
:103CF0000B61BB695A01FB69134403F530631B690F
:103D0000BA695101FA690A4402F5306243F40023AA
:103D1000136137E0BB681A69BB689B6813445A1E7D
:103D2000BB689B68B2FBF3F3FB82BB689B68FA8AB3
:103D300003FB02F2BB681A62BB695A01FB691344B8
:103D400003F530631A69FB8AD904384B0B40B96913
:103D50004801F969014401F5306113430B61BB6906
:103D60005A01FB69134403F530631A69BB681B6A87
:103D7000C3F31203B9694801F969014401F53061DF
:103D800013430B61FB79012B0DD1BB68DB68002B62
:103D900009D0BB68D968BB695A01FB69134403F5B4
:103DA00030630A465A61BB681B79012B28D1FB6935
:103DB00003F500639B6803F48073002B10D1BB698B
:103DC0005A01FB69134403F530631B68BA6951015A
:103DD000FA690A4402F5306243F0005313600FE0C1
:103DE000BB695A01FB69134403F530631B68BA6968
:103DF0005101FA690A4402F5306243F080531360BE
:103E0000BB695A01FB69134403F530631B68BA6947
:103E10005101FA690A4402F5306243F00443136029
:103E2000002318462037BD4680BD00BF0000F81FA4
:103E300080B487B000AF786039600023FB60002356
:103E4000FB757B683B613B685B78012B4AD13B6823
:103E50001B785A013B69134403F510631B6803F098
:103E60000043B3F1004F40F086803B681B785A0155
:103E70003B69134403F510631B683A6812785101DB
:103E80003A690A4402F5106243F0006313603B682C
:103E90001B785A013B69134403F510631B683A68A9
:103EA000127851013A690A4402F5106243F08043E6
:103EB0001360FB680133FB60FB6842F210729342AF
:103EC00002D90123FB7556E03B681B785A013B6918
:103ED000134403F510631B6803F00043B3F1004F74
:103EE000E7D048E03B681B785A013B69134403F56F
:103EF00030631B6803F00043B3F1004F3BD13B68D4
:103F00001B785A013B69134403F530631B683A6818
:103F1000127851013A690A4402F5306243F00063B5
:103F200013603B681B785A013B69134403F5306307
:103F30001B683A68127851013A690A4402F5306206
:103F400043F080431360FB680133FB60FB6842F27F
:103F50001072934202D90123FB750CE03B681B7879
:103F60005A013B69134403F530631B6803F00043B7
:103F7000B3F1004FE7D0FB7D18461C37BD465DF816
:103F8000047B704780B489B000AFF860B960114617
:103F90001A460B46FB711346BB80FB687B61BB680E
:103FA000FB6197F82830002B23D1BB8803339B0893
:103FB0003B610023BB6118E0FB791A037B69134462
:103FC00003F580531A46FB691B681360FB690133D4
:103FD000FB61FB690133FB61FB690133FB61FB6939
:103FE0000133FB61BB690133BB61BA693B699A422A
:103FF000E2D3002318462437BD465DF8047B7047A2
:1040000080B48BB000AFF860B9601346FB80FB68EA
:10401000BB61BB687B62FB889B089BB27B61FB88B2
:1040200003F00303FB8300233B6214E0BB6903F549
:1040300080531A687B6A1A607B6A01337B627B6AF1
:1040400001337B627B6A01337B627B6A01337B6273
:104050003B6A01333B623A6A7B699A42E6D3FB8B47
:10406000002B1ED000233B62BB6903F580531A4628
:1040700007F1100312681A603A693B6ADBB2DB0091
:1040800022FA03F3DAB27B6A1A703B6A01333B62AD
:104090007B6A01337B62FB8B013BFB83FB8B002B39
:1040A000EAD17B6A18462C37BD465DF8047B704721
:1040B00080B485B000AF786039607B68FB603B6896
:1040C0001B78BB603B685B78012B2CD1BB685A0125
:1040D000FB68134403F510631B68002B12DBBB68FD
:1040E000002B0FD0BB685A01FB68134403F5106323
:1040F0001B68BA685101FA680A4402F5106223F09D
:1041000080431360BB685A01FB68134403F51063D6
:104110001B68BA685101FA680A4402F5106243F458
:10412000001313602BE0BB685A01FB68134403F5CE
:1041300030631B68002B12DBBB68002B0FD0BB6801
:104140005A01FB68134403F530631B68BA685101D8
:10415000FA680A4402F5306223F080431360BB68BA
:104160005A01FB68134403F530631B68BA685101B8
:10417000FA680A4402F5306243F400131360002326
:1041800018461437BD465DF8047B704780B485B08F
:1041900000AF786039607B68FB603B681B78BB6070
:1041A0003B685B78012B28D1BB685A01FB6813443C
:1041B00003F510631B68BA685101FA680A4402F5F6
:1041C000106223F4001313603B681B79032B03D0A8
:1041D0003B681B79022B38D1BB685A01FB6813443A
:1041E00003F510631B68BA685101FA680A4402F5C6
:1041F000106243F08053136027E0BB685A01FB68EC
:10420000134403F530631B68BA685101FA680A4425
:1042100002F5306223F4001313603B681B79032B13
:1042200003D03B681B79022B0FD1BB685A01FB6896
:10423000134403F530631B68BA685101FA680A44F5
:1042400002F5306243F080531360002318461437A0
:10425000BD465DF8047B704780B485B000AF7860E0
:104260000B46FB707B68FB60FB6803F500631B6813
:10427000FA6802F5006223F4FE631360FB6803F53D
:1042800000631A68FB781B0103F4FE63F96801F50B
:10429000006113430B60002318461437BD465DF8D8
:1042A000047B704780B485B000AF78607B68FB60AA
:1042B000FB6803F560631B68FA6802F5606223F02F
:1042C00003031360FB6803F500635B68FA6802F59B
:1042D000006223F002035360002318461437BD46E2
:1042E0005DF8047B704780B485B000AF78607B6870
:1042F000FB60FB6803F560631B68FA6802F56062A7
:1043000023F003031360FB6803F500635B68FA683E
:1043100002F5006243F0020353600023184614378D
:10432000BD465DF8047B704780B485B000AF78600F
:104330007B685B69FB607B689B69FA681340FB6084
:10434000FB6818461437BD465DF8047B704780B49F
:1043500085B000AF78607B68FB60FB6803F50063A5
:104360009B69BB60FB6803F50063DB69BA681340B7
:10437000BB60BB681B0C18461437BD465DF8047B58
:10438000704780B485B000AF78607B68FB60FB68E5
:1043900003F500639B69BB60FB6803F50063DB69A1
:1043A000BA681340BB60BB689BB218461437BD4661
:1043B0005DF8047B704780B485B000AF78600B4631
:1043C000FB707B68FB60FB785A01FB68134403F5C4
:1043D00030639B68BB60FB6803F500635B69BA6888
:1043E0001340BB60BB6818461437BD465DF8047BBC
:1043F000704780B487B000AF78600B46FB707B6875
:104400007B617B6903F500631B693B617B6903F595
:1044100000635B6BFB60FB7803F00F03FA6822FA22
:1044200003F3DB01DBB23A6913433B61FB785A01CA
:104430007B69134403F510639B683A691340BB60C2
:10444000BB6818461C37BD465DF8047B704780B4D6
:1044500083B000AF78607B685B6903F001031846A6
:104460000C37BD465DF8047B704780B485B000AF63
:1044700078607B68FB60FB6803F510631B68FA6873
:1044800002F5106223F4FF6323F007031360FB6857
:1044900003F500635B68FA6802F5006243F4807319
:1044A0005360002318461437BD465DF8047B7047FF
:1044B00080B487B000AFF8600B467A60FB72FB688F
:1044C0007B61FB683C3304331B683B613B69264AD4
:1044D00093420AD97B6903F530631B6803F00043FC
:1044E000B3F1004F01D1002337E07B6903F530635E
:1044F0001A46002313617B6903F530631B697A69EF
:1045000002F5306243F4002313617B6903F53063E5
:104510001B697A6902F5306243F0180313617B6905
:1045200003F530631B697A6902F5306243F0C043DA
:104530001361FB7A012B0FD17B6903F530631A46B7
:104540007B6853617B6903F530631B687A6902F508
:10455000306243F080231360002318461C37BD46A9
:104560005DF8047B704700BF0A30544F80B485B0BB
:1045700000AF78600023FB60FB680133FB60FB68E1
:10458000B3F1706F01D9032322E07B681B69002B14
:10459000F2DA0A23FB6002E0FB68013BFB60FB6888
:1045A000002BF9D17B681B6943F001027B681A611B
:1045B000FB680133FB60FB68B3F1706F01D9032323
:1045C00006E07B681B6903F00103012BF0D0002398
:1045D00018461437BD465DF8047B704780B582B03D
:1045E00000AF78607B6818464FF434431A460021C8
:1045F00014F0B4FD7B6803F5304303F580634FF49A
:1046000000520021184614F0A9FD7B6803F55043C1
:1046100003F580634FF400520021184614F09EFD0C
:104620007B6803F5704303F58063A02200211846E0
:1046300014F094FD7B6803F5704303F594638022C6
:104640000021184614F08AFD7B6803F5704303F5DA
:10465000A4637F220021184614F080FD7B68184671
:104660000837BD4680BD80B483B000AF78607B68FA
:104670001A460023136053609360D36013617B6814
:10468000143300221A605A609A60DA601A615A6123
:10469000C3F817207B68012283F82F207B68002253
:1046A0001A867B68002283F832207B68002283F818
:1046B00033207B68002283F834207B68002283F853
:1046C00035207B68002283F836207B68002283F83F
:1046D00037207B6800221A877B68002283F83A2003
:1046E0007B68002283F83B207B68002283F83C2013
:1046F0007B6818460C37BD465DF8047B704780B474
:1047000083B000AF78607B681A4600231360536063
:1047100013817B680A3300221A605A601A817B6811
:1047200000221A757B6800225A757B6800229A75F0
:104730007B680022DA757B6800221A767B6800228B
:104740005A767B6801229A767B6818460C37BD46FC
:104750005DF8047B704780B582B000AF78607B68FD
:104760001846FFF780FF7B683E331846FFF7C7FF08
:104770007B680022A3F85A207B68002283F85C2023
:104780007B68002283F85D207B68002283F85E202E
:104790007B68002283F85F207B68002283F860201A
:1047A0007B68002283F861207B68002283F8622006
:1047B0007B68002283F863207B68002283F86420F2
:1047C0007B68002283F865207B68002283F86620DE
:1047D0007B68002283F867207B6818460837BD464F
:1047E00080BD80B582B000AF78607B68184630230A
:1047F0001A46002114F0B2FC7B68303300221A60A4
:104800005A609A60DA607B68403300221A607B68E5
:10481000443300221A607B680022A3F848207B689A
:104820000022A3F84A207B68002283F84C207B6892
:10483000002283F84D207B68002283F84E207B689D
:10484000002283F84F207B68002283F850207B6889
:10485000002283F851207B68002283F852207B6875
:10486000002283F853207B68002283F854207B6861
:1048700018460837BD4680BD80B483B000AF78606D
:1048800079684FF000024FF00003C1E900237B6814
:1048900000221A727B6800225A727B6800229A7288
:1048A0007B680022DA727B6800221A737B68002220
:1048B0005A737B6818460C37BD465DF8047B704719
:1048C00080B582B000AF78607B681846FFF7D4FFF0
:1048D0007B6800221A827B6800229A747B6800221F
:1048E000DA747B6800221A757B6800225A757B682F
:1048F00000229A757B680022DA757B6800221A769E
:104900007B6800225A767B6800229A767B6818467C
:104910000837BD4680BD80B483B000AF78607B6847
:1049200000221A707B6800225A707B6800229A70FD
:104930007B680022DA707B6818460C37BD465DF84C
:10494000047B704780B582B000AF78607B68184602
:10495000FFF747FF7B685833184600F0BFF97B68C4
:104960005C33184600F003FA7B686033184600F0A9
:10497000FEF97B6800225A667B6868331846FFF7A9
:104980009FFF7B6888331846FFF7C5FF7B680022CE
:10499000C3F88C207B680022C3F890207B681846FF
:1049A0000837BD4680BD80B582B000AF78607B68B7
:1049B0006033184600F0EBF97B685C33184600F072
:1049C000E6F97B685833184600F098F97B6818467A
:1049D0000837BD4680BD80B483B000AF78607B6887
:1049E00000221A807B6800225A807B6800221A719C
:1049F0007B6800225A717B6800229A717B680022D2
:104A0000DA717B6800221A727B6800225A727B6816
:104A100000229A727B680022DA727B6800221A7385
:104A20007B6800225A737B6800229A737B6800229D
:104A3000DA737B6800221A747B6800225A747B68E0
:104A400000229A747B680022DA747B6800221A754F
:104A50007B6800225A757B6800229A757B6818462D
:104A60000C37BD465DF8047B704780B483B000AF5F
:104A700078607B6800221A807B6800229A707B68CD
:104A80000022DA707B6800221A717B6800225A715A
:104A90007B6800229A717B680022DA717B680022B1
:104AA0001A727B6818460C37BD465DF8047B704768
:104AB00080B483B000AF78607B680F221A707B6887
:104AC0000F225A707B6818460C37BD465DF8047B90
:104AD000704780B582B000AF78607B681846FFF7FA
:104AE0007DFD7B6803F57543A0331846FFF733FE61
:104AF0007B6803F5764308331846FFF723FF7B688E
:104B000003F57643A03319464FF000024FF000033F
:104B1000C1E900237B6803F57643A8331846FFF705
:104B20005AFF7B6803F57643C0331846FFF79DFFB5
:104B30007B6803F57643CA331846FFF7B9FF7B68F5
:104B400018460837BD4680BD80B582B000AF00234F
:104B50007B601CE01B4802F0CBF9034607EE903A5D
:104B6000F8EE677AC7ED007A174B93ED007AD7ED30
:104B7000007A77EE277A144BC3ED007AD7ED007AEE
:104B8000FCEEE77A17EE902A7B6813447B600E4BAD
:104B9000D3ED007A9FED0D7AF4EEC77AF1EE10FABC
:104BA000D8D9094BD3ED007A9FED087A77EEC77A12
:104BB000054BC3ED007A064A7B68136000BF0837D7
:104BC000BD4680BD80640020505B012000288946DE
:104BD000585B012080B485B000AF78600023FB6093
:104BE00036E0214AFB6832F813307B817B894FF62F
:104BF000FF72934205D17A68FB68134400221A7051
:104C000023E07B894AF66B52934205D17A68FB68B0
:104C1000134401221A7018E07B8945F295229342D1
:104C200005D17A68FB68134402221A700DE07B8973
:104C3000012B05D17A68FB68134403221A7004E043
:104C40007A68FB68134400221A70FB680133FB602A
:104C5000FB68B3F5B44FC4D300BF00BF1437BD46E3
:104C60005DF8047B704700BF8064002080B582B08F
:104C700000AF786039603B687A680449044800F006
:104C80008BFA00BF0837BD4680BD00BF806400209E
:104C9000885A012080B500AF024800F0B1FF00BF84
:104CA00080BD00BF8064002080B582B000AF786016
:104CB0007B68184600F08AF87B6818460837BD46BE
:104CC00080BD80B582B000AF78607B681846FFF782
:104CD000EBFF7B6818460837BD4680BD80B582B0C3
:104CE00000AF78607B6800221A607B681846FFF787
:104CF000E8FF7B6818460837BD4680BD80B584B0A4
:104D000000AF78607B68184600F06DF8F860FB68CB
:104D10001B68002B09D0786800F072F80246FB6827
:104D20001B681946104600F078F8FB6800221A60EC
:104D30007B6818461037BD4680BD80B582B000AF95
:104D400078607B68184600F077F87B68184608376B
:104D5000BD4680BD80B582B000AF78607B681846E4
:104D6000FFF7EBFF7B6818460837BD4680BD80B56E
:104D700082B000AF78607B6800221A607B681846BA
:104D8000FFF7E8FF7B6818460837BD4680BD80B551
:104D900084B000AF78607B68184600F05AF8F8607D
:104DA000FB681B68002B09D0786800F05FF80246AA
:104DB000FB681B681946104600F065F8FB68002286
:104DC0001A607B6818461037BD4680BD80B582B03A
:104DD00000AF78607B68184600F064F87B6818467E
:104DE0000837BD4680BD80B582B000AF78607B6873
:104DF000184600F067F8034618460837BD4680BDE0
:104E000080B582B000AF78607B68184600F067F824
:104E1000034618460837BD4680BD80B582B000AF56
:104E2000786039603B68002B02D0386814F07AF85B
:104E300000BF0837BD4680BD80B582B000AF786046
:104E40007B68184600F058F87B6818460837BD465E
:104E500080BD80B582B000AF78607B68184600F0F6
:104E60005BF8034618460837BD4680BD80B582B062
:104E700000AF78607B68184600F05BF80346184680
:104E80000837BD4680BD80B582B000AF786039601C
:104E90003B68002B02D0386814F044F800BF083794
:104EA000BD4680BD80B582B000AF7860786800F004
:104EB0004DF87B68184600F055F87B6818460837AF
:104EC000BD4680BD80B582B000AF78607B68184673
:104ED00000F056F8034618460837BD4680BD80B539
:104EE00082B000AF78607B68184600F055F8034642
:104EF00018460837BD4680BD80B582B000AF7860E7
:104F0000786800F055F87B68184600F05DF87B681B
:104F100018460837BD4680BD80B582B000AF7860C6
:104F20007B68184600F05EF8034618460837BD4611
:104F300080BD80B582B000AF78607B68184600F015
:104F40005DF8034618460837BD4680BD80B582B07F
:104F500000AF7860786800F05DF87B681846083725
:104F6000BD4680BD80B483B000AF78607B6800220E
:104F70001A607B6818460C37BD465DF8047B7047A5
:104F800080B582B000AF7860786800F04EF80346D4
:104F900018460837BD4680BD80B582B000AF786046
:104FA000786800F04FF8034618460837BD4680BDC4
:104FB00080B582B000AF7860786800F04FF87B6809
:104FC00018460837BD4680BD80B483B000AF786016
:104FD0007B6800221A607B6818460C37BD465DF876
:104FE000047B704780B582B000AF7860786800F0CD
:104FF00040F8034618460837BD4680BD80B582B0EC
:1050000000AF7860786800F041F80346184608372A
:10501000BD4680BD80B483B000AF78607B68184621
:105020000C37BD465DF8047B704780B582B000AF99
:1050300078607B68184600F035F803461846083754
:10504000BD4680BD80B582B000AF7860786800F062
:1050500034F8034618460837BD4680BD80B483B097
:1050600000AF78607B6818460C37BD465DF8047B5E
:10507000704780B582B000AF78607B68184600F05A
:1050800028F8034618460837BD4680BD80B582B073
:1050900000AF7860786800F027F8034618460837B4
:1050A000BD4680BD80B483B000AF78607B68184691
:1050B0000C37BD465DF8047B704780B582B000AF09
:1050C0007860786800F01CF8034618460837BD463B
:1050D00080BD80B483B000AF78607B6818460C3721
:1050E000BD465DF8047B704780B582B000AF786044
:1050F000786800F010F8034618460837BD4680BDB2
:1051000080B483B000AF78607B6818460C37BD462A
:105110005DF8047B704780B483B000AF78607B6833
:1051200018460C37BD465DF8047B704780B500AF6C
:105130000248FFF7CEFC00BF80BD00BF80640020A6
:1051400080B582B000AF78607B6803F576430833A2
:105150001846FFF728FC7B6818460837BD4680BD17
:1051600080B500AF0248FFF7EBFF00BF80BD00BF76
:105170008064002080B500AFFFF7D8FF80BD80B508
:1051800000AFFFF7EDFF80BD80B400AF00231846ED
:10519000BD465DF8047B704780B584B000AFF86011
:1051A000B9607A603B60184B01221A603A687968EE
:1051B000F86800F02BF8144B02221A60F86800F02F
:1051C00035F8114B03221A60F86800F0D5FA0E4B3F
:1051D00004221A60B968F86800F0DAFB0A4B05226D
:1051E0001A60FB68D3F8880002F012F9064B062219
:1051F0001A60B86802F06AFA034B07221A6000BF0F
:105200001037BD4680BD00BF545B012080B485B01F
:1052100000AFF860B9607A60FB68BA685A6600BF90
:105220001437BD465DF8047B7047000090B587B029
:1052300000AF78600023FB7514E07B6803F158022F
:10524000FB7D03F580731946104600F015FE0246FB
:10525000FB7D11787A6813440A4683F84420FB7D6D
:105260000133FB75FB7D032BE7D90023BB7511E0F0
:105270007B6803F15802BB7D03F582731946104623
:1052800000F0FAFD0246BB7D11787A68D154BB7DEF
:105290000133BB75BB7D2F2BEAD900237B7514E04E
:1052A0007B6803F158027B7D03F59A73194610461B
:1052B00000F0E2FD02467B7D11787A6813440A46CD
:1052C00083F830207B7D01337B757B7D0F2BE7D905
:1052D00000233B7514E07B6803F158023B7D03F229
:1052E0003F131946104600F0C7FD02463B7D11787A
:1052F0007A6813440A4683F840203B7D01333B75AE
:105300003B7D032BE7D97B68583340F243111846A5
:1053100000F0B2FD03461A787B6883F84E207B6864
:10532000583340F24B11184600F0A6FD03461B7897
:10533000332B0CBF01230023DBB2002B28D07B686A
:1053400058334FF4A271184600F096FD03461B78BF
:105350001BB21B021CB27B68583340F24511184641
:1053600000F08AFD03461B781BB223431BB29AB29E
:105370007B68A3F848207B68583340F24B111846ED
:1053800000F07AFD03461A787B6883F852200BE020
:105390007B68583340F24B11184600F06DFD034610
:1053A0001A787B6883F852207B6858334FF4A371D6
:1053B000184600F061FD03461A787B6883F84C209C
:1053C0007B68583340F24711184600F055FD0346FC
:1053D0001A787B6883F84D207B6858334FF4A471AA
:1053E000184600F049FD03461A787B6883F84F2081
:1053F0007B68583340F24911184600F03DFD0346E2
:105400001A787B6883F850207B6858334FF4A57175
:10541000184600F031FD03461A787B6883F8512066
:105420007B6858334FF4A671184600F025FD0346FB
:105430001A787B6883F853207B68583340F24D110B
:10544000184600F019FD03461A787B6883F854204B
:105450000023FB724FF49A737B8211E0FC7A7B6825
:1054600058337A8A1146184600F006FD03461B7829
:10547000E31ADBB2013BDBB2FB727B8A01337B8236
:105480007B8AB3F5A67FE9D97B6893F85420FB7A31
:105490009A4207D07B68543307F10B021946A4489F
:1054A00000F008FD7B6858334FF4A771184600F0F0
:1054B000E3FC03461B781BB21B021CB27B6858330B
:1054C00040F24F11184600F0D7FC03461B781BB280
:1054D00023431BB29AB27B68A3F84A2000233B8186
:1054E0000023FB601AE0FB68B3F5A77F12D0FB68CE
:1054F00040F24F1293420DD07B685833F96818463A
:1055000000F0BAFC03461B781A463B8913449BB251
:105510003B8100E000BFFB680133FB607B68D3F890
:105520008C30FA689A42DED37B68B3F84A203B8914
:105530009A4207D07B684A3307F1080219467D4832
:1055400000F0C4FC7B6893F84F30542B00F2EB80E2
:1055500001A252F823F000BFAD560008B75600086C
:10556000C1560008CB560008D5560008DF56000883
:10557000E9560008F3560008FD56000827570008B2
:105580002757000827570008275700082757000803
:1055900027570008275700082757000827570008F3
:1055A00027570008275700082757000827570008E3
:1055B00027570008275700082757000827570008D3
:1055C00027570008275700082757000827570008C3
:1055D00027570008275700082757000827570008B3
:1055E00027570008275700082757000827570008A3
:1055F0002757000827570008275700082757000893
:105600002757000827570008275700082757000882
:105610002757000827570008275700082757000872
:105620002757000827570008275700082757000862
:105630002757000827570008275700082757000852
:105640002757000827570008275700082757000842
:105650002757000827570008275700082757000832
:105660002757000827570008275700082757000822
:105670002757000827570008275700082757000812
:105680002757000827570008275700082757000802
:1056900027570008275700082757000827570008F2
:1056A00009570008135700081D5700087B6801229E
:1056B000A3F8782037E07B680322A3F8782032E053
:1056C0007B680722A3F878202DE07B680F22A3F8DF
:1056D000782028E07B681F22A3F8782023E07B68ED
:1056E0003F22A3F878201EE07B687F22A3F8782071
:1056F00019E07B68FF22A3F8782014E07B6840F271
:10570000FF12A3F878200EE07B684722A3F87820E8
:1057100009E07B684F22A3F8782004E07B685F22D1
:10572000A3F8782000BF00BF1C37BD4690BD00BF66
:10573000989A0108D49A010880B582B000AF7860C9
:1057400039607B683A681146184600F0F8FB7B68C0
:1057500018460837BD4680BD80B582B000AF78607E
:1057600039607B683A6811461846FFF7E5FF7B68A9
:1057700018460837BD4680BD90B589B000AF786047
:105780007B6893F85030052B00F2B68001A252F8E6
:1057900023F000BFAD570008C357000801580008A8
:1057A0003F5800087D580008BB5800087B685C33F0
:1057B0000021184600F096FB7B68002283F87A20CF
:1057C000A4E07B68012283F87A207B6803F15C0403
:1057D0004FF4006013F0A8FB03461A4607F10C03D0
:1057E0001146184600F09CFB07F10C0319462046B1
:1057F000FFF7B2FF07F10C031846FFF7C8FA85E080
:105800007B68012283F87A207B6803F15C044FF403
:10581000005013F089FB03461A4607F110031146A6
:10582000184600F07DFB07F1100319462046FFF7EC
:1058300093FF07F110031846FFF7A9FA66E07B68AB
:10584000042283F87A207B6803F15C044FF4004063
:1058500013F06AFB03461A4607F114031146184673
:1058600000F05EFB07F1140319462046FFF774FFB2
:1058700007F114031846FFF78AFA47E07B68102205
:1058800083F87A207B6803F15C044FF4003013F056
:105890004BFB03461A4607F118031146184600F061
:1058A0003FFB07F1180319462046FFF755FF07F1A4
:1058B00018031846FFF76BFA28E07B68082283F884
:1058C0007A207B6803F15C044FF4803013F02CFBEA
:1058D00003461A4607F11C031146184600F020FB48
:1058E00007F11C0319462046FFF736FF07F11C039A
:1058F0001846FFF74CFA09E0064800F03CFB7B68CD
:105900005C330021184600F0EDFA00BF00BF2437D9
:10591000BD4690BD189B010890B585B000AF78607A
:105920007B68022283F888200023FB7328E07B68D1
:1059300003F15802FB7B03F582731946104600F011
:105940009BFA03461C787B6803F15802FB7B03F14A
:10595000041303F580731946104600F08DFA0346D0
:105960001B789C4214BF01230023DBB2002B04D020
:105970007B68012283F8882006E0FB7B0133FB7300
:10598000FB7B2F2BD3D900BF00BF1437BD4690BD82
:1059900080B586B000AF786039607B68002283F8FC
:1059A00088207B68002283F889207B68002283F8A6
:1059B0008A207B68002283F88B207B6893F84D3027
:1059C000132B00F2158101A252F823F01D5A000892
:1059D000275A0008835A0008E75A0008515B00085C
:1059E000595B0008635B0008F15B0008F15B00088D
:1059F000F15B0008F15B0008F15B0008F15B000857
:105A0000F15B0008F15B0008755B00088F5B000824
:105A1000B15B0008BB5B0008CD5B00087B6800221F
:105A200083F88820E4E07B68012283F888203B68C3
:105A30007B617B6903F57043D3F89436B3F5801F1F
:105A400013D37B6903F57043012283F887267B69B2
:105A500003F57043D3F89436B3F5001F05D37B6983
:105A600003F57043002283F8882600BF7B68D3F8D3
:105A70008C30614A934240F2B6807868FFF74CFF61
:105A8000B1E07B68012283F888207B68012283F8DB
:105A900089203B683B613B6903F57043D3F894363A
:105AA000B3F5801F13D33B6903F57043012283F8DC
:105AB00087263B6903F57043D3F89436B3F5001F8E
:105AC00005D33B6903F57043002283F8882600BFA5
:105AD0007B68D3F88C30484A934240F286807868DD
